{
  "_format": "hh-sol-artifact-1",
  "contractName": "TicTacToeFund",
  "sourceName": "contracts/TicTacToeFund.sol",
  "abi": [
    {
      "inputs": [],
      "stateMutability": "nonpayable",
      "type": "constructor"
    },
    {
      "anonymous": false,
      "inputs": [
        {
          "indexed": true,
          "internalType": "address",
          "name": "user",
          "type": "address"
        },
        {
          "indexed": true,
          "internalType": "uint32",
          "name": "credits",
          "type": "uint32"
        },
        {
          "indexed": false,
          "internalType": "string",
          "name": "message",
          "type": "string"
        }
      ],
      "name": "Consume",
      "type": "event"
    },
    {
      "anonymous": false,
      "inputs": [
        {
          "indexed": true,
          "internalType": "address",
          "name": "previousOwner",
          "type": "address"
        },
        {
          "indexed": true,
          "internalType": "address",
          "name": "newOwner",
          "type": "address"
        }
      ],
      "name": "OwnershipTransferred",
      "type": "event"
    },
    {
      "inputs": [],
      "name": "Owner",
      "outputs": [
        {
          "internalType": "address",
          "name": "",
          "type": "address"
        }
      ],
      "stateMutability": "view",
      "type": "function"
    },
    {
      "inputs": [],
      "name": "consumeCredit",
      "outputs": [],
      "stateMutability": "nonpayable",
      "type": "function"
    },
    {
      "inputs": [
        {
          "internalType": "address",
          "name": "",
          "type": "address"
        }
      ],
      "name": "customerCredit",
      "outputs": [
        {
          "internalType": "uint32",
          "name": "",
          "type": "uint32"
        }
      ],
      "stateMutability": "view",
      "type": "function"
    },
    {
      "inputs": [],
      "name": "depositMoney",
      "outputs": [],
      "stateMutability": "payable",
      "type": "function"
    },
    {
      "inputs": [],
      "name": "getCustomerCredit",
      "outputs": [
        {
          "internalType": "uint256",
          "name": "",
          "type": "uint256"
        }
      ],
      "stateMutability": "view",
      "type": "function"
    },
    {
      "inputs": [],
      "name": "getFundBalance",
      "outputs": [
        {
          "internalType": "uint256",
          "name": "",
          "type": "uint256"
        }
      ],
      "stateMutability": "view",
      "type": "function"
    },
    {
      "inputs": [],
      "name": "owner",
      "outputs": [
        {
          "internalType": "address",
          "name": "",
          "type": "address"
        }
      ],
      "stateMutability": "view",
      "type": "function"
    },
    {
      "inputs": [],
      "name": "renounceOwnership",
      "outputs": [],
      "stateMutability": "nonpayable",
      "type": "function"
    },
    {
      "inputs": [
        {
          "internalType": "address",
          "name": "newOwner",
          "type": "address"
        }
      ],
      "name": "transferOwnership",
      "outputs": [],
      "stateMutability": "nonpayable",
      "type": "function"
    },
    {
      "inputs": [
        {
          "internalType": "address payable",
          "name": "_to",
          "type": "address"
        }
      ],
      "name": "withDrawMoney",
      "outputs": [],
      "stateMutability": "payable",
      "type": "function"
    }
  ],
  "bytecode": "0x608060405266038d7ea4c6800060035534801561001b57600080fd5b5061003861002d61007e60201b60201c565b61008660201b60201c565b33600160006101000a81548173ffffffffffffffffffffffffffffffffffffffff021916908373ffffffffffffffffffffffffffffffffffffffff16021790555061014a565b600033905090565b60008060009054906101000a900473ffffffffffffffffffffffffffffffffffffffff169050816000806101000a81548173ffffffffffffffffffffffffffffffffffffffff021916908373ffffffffffffffffffffffffffffffffffffffff1602179055508173ffffffffffffffffffffffffffffffffffffffff168173ffffffffffffffffffffffffffffffffffffffff167f8be0079c531659141344cd1fd0a4f28419497f9722a3daafe3b4186f6b6457e060405160405180910390a35050565b611160806101596000396000f3fe6080604052600436106100915760003560e01c8063b4965e3111610059578063b4965e3114610136578063b4a99a4e14610161578063cb2abf511461018c578063dae9e379146101a8578063f2fde38b146101d357610091565b806316c05aa21461009657806347d9fd84146100a0578063505db9c3146100b7578063715018a6146100f45780638da5cb5b1461010b575b600080fd5b61009e6101fc565b005b3480156100ac57600080fd5b506100b5610320565b005b3480156100c357600080fd5b506100de60048036038101906100d99190610a71565b61058b565b6040516100eb9190610d3e565b60405180910390f35b34801561010057600080fd5b506101096105ae565b005b34801561011757600080fd5b50610120610636565b60405161012d9190610c08565b60405180910390f35b34801561014257600080fd5b5061014b61065f565b6040516101589190610d23565b60405180910390f35b34801561016d57600080fd5b506101766106bc565b6040516101839190610c08565b60405180910390f35b6101a660048036038101906101a19190610a9a565b6106e2565b005b3480156101b457600080fd5b506101bd6107eb565b6040516101ca9190610d23565b60405180910390f35b3480156101df57600080fd5b506101fa60048036038101906101f59190610a71565b610883565b005b600354341015610241576040517f08c379a000000000000000000000000000000000000000000000000000000000815260040161023890610c43565b60405180910390fd5b6003543461024f9190610da4565b600260003373ffffffffffffffffffffffffffffffffffffffff1673ffffffffffffffffffffffffffffffffffffffff16815260200190815260200160002060008282829054906101000a900463ffffffff166102ac9190610d6a565b92506101000a81548163ffffffff021916908363ffffffff1602179055503373ffffffffffffffffffffffffffffffffffffffff166108fc600354346102f29190610e67565b9081150290604051600060405180830381858888f1935050505015801561031d573d6000803e3d6000fd5b50565b6000600260003373ffffffffffffffffffffffffffffffffffffffff1673ffffffffffffffffffffffffffffffffffffffff16815260200190815260200160002060009054906101000a900463ffffffff1663ffffffff16116103b8576040517f08c379a00000000000000000000000000000000000000000000000000000000081526004016103af90610cc3565b60405180910390fd5b6001600260003373ffffffffffffffffffffffffffffffffffffffff1673ffffffffffffffffffffffffffffffffffffffff16815260200190815260200160002060008282829054906101000a900463ffffffff166104179190610dd5565b92506101000a81548163ffffffff021916908363ffffffff1602179055506000600260003373ffffffffffffffffffffffffffffffffffffffff1673ffffffffffffffffffffffffffffffffffffffff16815260200190815260200160002060009054906101000a900463ffffffff1663ffffffff1614156104e65760003373ffffffffffffffffffffffffffffffffffffffff167fd874ad0d56bd3958c96b37eb4dd694c138c068cc249e51b03e636632c57ebd736040516104d990610d03565b60405180910390a3610589565b600260003373ffffffffffffffffffffffffffffffffffffffff1673ffffffffffffffffffffffffffffffffffffffff16815260200190815260200160002060009054906101000a900463ffffffff1663ffffffff163373ffffffffffffffffffffffffffffffffffffffff167fd874ad0d56bd3958c96b37eb4dd694c138c068cc249e51b03e636632c57ebd7360405161058090610ca3565b60405180910390a35b565b60026020528060005260406000206000915054906101000a900463ffffffff1681565b6105b661097b565b73ffffffffffffffffffffffffffffffffffffffff166105d4610636565b73ffffffffffffffffffffffffffffffffffffffff161461062a576040517f08c379a000000000000000000000000000000000000000000000000000000000815260040161062190610c83565b60405180910390fd5b6106346000610983565b565b60008060009054906101000a900473ffffffffffffffffffffffffffffffffffffffff16905090565b6000600260003373ffffffffffffffffffffffffffffffffffffffff1673ffffffffffffffffffffffffffffffffffffffff16815260200190815260200160002060009054906101000a900463ffffffff1663ffffffff16905090565b600160009054906101000a900473ffffffffffffffffffffffffffffffffffffffff1681565b6106ea61097b565b73ffffffffffffffffffffffffffffffffffffffff16610708610636565b73ffffffffffffffffffffffffffffffffffffffff161461075e576040517f08c379a000000000000000000000000000000000000000000000000000000000815260040161075590610c83565b60405180910390fd5b600047116107a1576040517f08c379a000000000000000000000000000000000000000000000000000000000815260040161079890610c63565b60405180910390fd5b8073ffffffffffffffffffffffffffffffffffffffff166108fc479081150290604051600060405180830381858888f193505050501580156107e7573d6000803e3d6000fd5b5050565b6000600160009054906101000a900473ffffffffffffffffffffffffffffffffffffffff1673ffffffffffffffffffffffffffffffffffffffff163373ffffffffffffffffffffffffffffffffffffffff161461087d576040517f08c379a000000000000000000000000000000000000000000000000000000000815260040161087490610ce3565b60405180910390fd5b47905090565b61088b61097b565b73ffffffffffffffffffffffffffffffffffffffff166108a9610636565b73ffffffffffffffffffffffffffffffffffffffff16146108ff576040517f08c379a00000000000000000000000000000000000000000000000000000000081526004016108f690610c83565b60405180910390fd5b600073ffffffffffffffffffffffffffffffffffffffff168173ffffffffffffffffffffffffffffffffffffffff16141561096f576040517f08c379a000000000000000000000000000000000000000000000000000000000815260040161096690610c23565b60405180910390fd5b61097881610983565b50565b600033905090565b60008060009054906101000a900473ffffffffffffffffffffffffffffffffffffffff169050816000806101000a81548173ffffffffffffffffffffffffffffffffffffffff021916908373ffffffffffffffffffffffffffffffffffffffff1602179055508173ffffffffffffffffffffffffffffffffffffffff168173ffffffffffffffffffffffffffffffffffffffff167f8be0079c531659141344cd1fd0a4f28419497f9722a3daafe3b4186f6b6457e060405160405180910390a35050565b600081359050610a56816110fc565b92915050565b600081359050610a6b81611113565b92915050565b600060208284031215610a8357600080fd5b6000610a9184828501610a47565b91505092915050565b600060208284031215610aac57600080fd5b6000610aba84828501610a5c565b91505092915050565b610acc81610e09565b82525050565b6000610adf602683610d59565b9150610aea82610ef6565b604082019050919050565b6000610b02603f83610d59565b9150610b0d82610f45565b604082019050919050565b6000610b25601583610d59565b9150610b3082610f94565b602082019050919050565b6000610b48602083610d59565b9150610b5382610fbd565b602082019050919050565b6000610b6b601383610d59565b9150610b7682610fe6565b602082019050919050565b6000610b8e602483610d59565b9150610b998261100f565b604082019050919050565b6000610bb1603683610d59565b9150610bbc8261105e565b604082019050919050565b6000610bd4603483610d59565b9150610bdf826110ad565b604082019050919050565b610bf381610e4d565b82525050565b610c0281610e57565b82525050565b6000602082019050610c1d6000830184610ac3565b92915050565b60006020820190508181036000830152610c3c81610ad2565b9050919050565b60006020820190508181036000830152610c5c81610af5565b9050919050565b60006020820190508181036000830152610c7c81610b18565b9050919050565b60006020820190508181036000830152610c9c81610b3b565b9050919050565b60006020820190508181036000830152610cbc81610b5e565b9050919050565b60006020820190508181036000830152610cdc81610b81565b9050919050565b60006020820190508181036000830152610cfc81610ba4565b9050919050565b60006020820190508181036000830152610d1c81610bc7565b9050919050565b6000602082019050610d386000830184610bea565b92915050565b6000602082019050610d536000830184610bf9565b92915050565b600082825260208201905092915050565b6000610d7582610e57565b9150610d8083610e57565b92508263ffffffff03821115610d9957610d98610e98565b5b828201905092915050565b6000610daf82610e4d565b9150610dba83610e4d565b925082610dca57610dc9610ec7565b5b828204905092915050565b6000610de082610e57565b9150610deb83610e57565b925082821015610dfe57610dfd610e98565b5b828203905092915050565b6000610e1482610e2d565b9050919050565b6000610e2682610e2d565b9050919050565b600073ffffffffffffffffffffffffffffffffffffffff82169050919050565b6000819050919050565b600063ffffffff82169050919050565b6000610e7282610e4d565b9150610e7d83610e4d565b925082610e8d57610e8c610ec7565b5b828206905092915050565b7f4e487b7100000000000000000000000000000000000000000000000000000000600052601160045260246000fd5b7f4e487b7100000000000000000000000000000000000000000000000000000000600052601260045260246000fd5b7f4f776e61626c653a206e6577206f776e657220697320746865207a65726f206160008201527f6464726573730000000000000000000000000000000000000000000000000000602082015250565b7f596f75206e65656420746f206465706f73697420736f6d6520616d6f756e742060008201527f6f66206d6f6e6579206d6f7265207468616e20302e3030312065746865722100602082015250565b7f496e73756666696369656e742062616c616e63652e0000000000000000000000600082015250565b7f4f776e61626c653a2063616c6c6572206973206e6f7420746865206f776e6572600082015250565b7f436f6e73756d6564206f6e652063726564697400000000000000000000000000600082015250565b7f506c65617365206368617267652063726564697473206265666f726520706c6160008201527f79696e6700000000000000000000000000000000000000000000000000000000602082015250565b7f596f75206d75737420626520746865206f776e6572206f66207468652062616e60008201527f6b20746f2073656520616c6c2062616c616e6365732e00000000000000000000602082015250565b7f596f75206e65656420746f206368617267652063726564697473206265666f7260008201527f6520706c617920746865206e6578742067616d65000000000000000000000000602082015250565b61110581610e09565b811461111057600080fd5b50565b61111c81610e1b565b811461112757600080fd5b5056fea2646970667358221220d63d84b87f54cfd1d518462fc77b2413ddf39c522e51e827396f8f6d56cb4f1264736f6c63430008040033",
  "linkReferences": {},
  "deployedLinkReferences": {}
}